:020000040800F2
:10000000600600200D020008490200084B020008AB
:100010004D0200084F0200085102000800000000D5
:100020000000000000000000000000005302000873
:10003000550200080000000057020008590200089D
:100040005B0200085B0200085B0200085B0200081C
:100050005B0200085B0200085B0200085B0200080C
:100060005B0200085B0200085B0200085B020008FC
:100070005B0200085B0200085B0200085B020008EC
:100080005B0200085B0200085B0200085B020008DC
:100090005B0200085B0200085B0200085B020008CC
:1000A0005B0200085B0200085B0200085B020008BC
:1000B0005B0200085B0200085B0200085B020008AC
:1000C0005B0200085B0200085B0200085B0200089C
:1000D0005B0200085B0200085B0200085B0200088C
:1000E0005B0200085B0200085B0200085B0200087C
:1000F0005B0200085B0200085B0200085B0200086C
:100100005B0200085B0200085B0200085B0200085B
:100110005B0200085B0200085B0200085B0200084B
:100120005B0200085B0200085B0200085B0200083B
:100130005B0200085B0200085B0200085B0200082B
:100140005B0200085B0200085B0200085B0200081B
:100150005B0200085B0200085B0200085B0200080B
:100160005B0200085B0200085B0200085B020008FB
:100170005B0200085B0200085B0200080000000050
:100180005B0200085B02000800F002F800F02EF8A5
:100190000AA090E8000C82448344AAF10107DA45E2
:1001A00001D100F023F8AFF2090EBAE80F0013F006
:1001B000010F18BFFB1A43F001031847C00B0000E2
:1001C000D00B00000023002400250026103A28BF91
:1001D00078C1FBD8520728BF30C148BF0B607047B9
:1001E0001FB500F0C5FD1FBD10B510BD00F053F8E0
:1001F0001146FFF7F5FF00F011FB00F071F803B4B2
:10020000FFF7F2FF03BC00F079F800001648174929
:10021000174B99423CBF50F8042B41F8042BF8D3FC
:1002200014494FF000028B4238BF43F8042BFAD335
:10023000DFF84400016841F470010160BFF34F8FA3
:10024000BFF36F8F0D480047FEE7FEE7FEE7FEE7CE
:10025000FEE7FEE7FEE7FEE7FEE7FEE7084809499E
:10026000094A0A4B704700008C0D0008000000206E
:10027000000000206006002088ED00E089010008F1
:100280006000002060060020600200206002002064
:10029000704770477047754600F02CF8AE46050071
:1002A0006946534620F00700854618B020B5FFF791
:1002B000D5FFBDE820404FF000064FF000074FF09B
:1002C00000084FF0000B21F00701AC46ACE8C00974
:1002D000ACE8C009ACE8C009ACE8C0098D4670477D
:1002E00010B50446AFF300802046BDE81040FFF78C
:1002F00086BF000000487047000000200149182018
:10030000ABBEFEE7260002007047000070B52DED81
:10031000068B0446204600F01AFC41EC1A0B53EC05
:100320001A2B9FED180B51EC100B00F08BFA41ECDF
:10033000190B9FED160B53EC102B00F01BFC41EC3E
:10034000180B00F0D7FB054605EB85000121C1EB3A
:1003500040061048066001460968481C00F0F7FB9B
:1003600041EC190B9FED0C0B53EC102B00F002FC31
:1003700041EC180B00F0BEFB064908310860BDECEB
:10038000068B70BD000000000000F03F0000000080
:1003900000408F402C080040000000000000E03FBB
:1003A00000214FF0E02211611049414351610021C9
:1003B00091611146096941F0040111611146096911
:1003C00021F0020111611146096941F00101116139
:1003D00000BF4FF0E021096901F480310029F8D015
:1003E00000214FF0E02211617047000000350C0041
:1003F000F6EE000AB0EE600A3748C06C40F002002A
:100400003549C8643548006820F4405040F4005035
:100410003249086031482030006820F0706040F0B8
:1004200000702E49203108602C480C30006820F400
:1004300040502A490C3108602748806D40F0040084
:10044000254988652648006820F010002449086086
:1004500024482349283108600011091D08602048FC
:1004600018300068204908401D49183108601C48B0
:100470002C300068401C00EE900AF8EE600A60EE36
:10048000800AFCEEE00A10EE900A1549343108604B
:1004900013484430006840F400401149443108607A
:1004A0000F481830006840F060000D4918310860AE
:1004B0000B482030006820F0020009492031086014
:1004C0000846006840F0010008600548006840F0F8
:1004D0000100034908607047001002400004004812
:1004E000000800407F3801008FFFFEFF1948C06CF4
:1004F00040F010001749C8640A2028E0164909682E
:10050000430003229A409143134A1160114609683F
:10051000430001229A4011430F4A11601146896835
:10052000430003229A4091430B4A91601146896827
:10053000430003229A401143074A91601146C9685B
:10054000430003229A409143034AD160401C102883
:10055000D4DB7047001002400010004800B50120B5
:1005600000F002F800BD000000B5034617484069DE
:1005700020F40060154948610846406920F4806015
:1005800048610846406940F40060486119090F4815
:10059000406961F30F300D4948610846406920F415
:1005A000006048610846406940F4006048610846C0
:1005B000406963F30F3048610846406920F40060E9
:1005C00048610120FFF7ECFE00BD0000001000486C
:1005D00000B5FFF78BFF2F48406940F400602D49BC
:1005E00048610846406920F4704040F4405048613A
:1005F0000846406920F4006048610520FFF7D0FEFE
:100600002448406940F40060224948610846406936
:1006100020F4704040F4405048610846406920F49E
:10062000006048610120FFF7BBFE1A48406940F4B2
:100630000060184948610846406920F4704040F461
:10064000405048610846406920F40060486108460F
:10065000406940F4006048610846406920F47040F9
:1006600040F4005048610846406920F40060486149
:100670000220FFF795FE2020FFF776FF0820FFF706
:1006800073FFFFF76BFF0620FFF76EFF0C20FFF7ED
:100690006BFF00BD001000485E49096821F00701AA
:1006A0005C4A11601146096841F0020111605A4923
:1006B000096841F48071584A116000BF56490968C1
:1006C00001F480610029F9D010205349496821F0D4
:1006D000F851514A51601146496841EA0061516040
:1006E0001146096821F08071116000BF4A4909680C
:1006F00001F00071B1F1007FF8D04749C96821F0DD
:100700000301454AD1601146C96841F00201D16038
:100710001146C96821F4FE4141F4A051D16011464F
:10072000C96821F0700141F01001D1601146C9681B
:1007300021F0C061D1601146C96841F08071D1607B
:100740001146096841F08071116000BF32490968A3
:1007500001F000710029F9D02F49896821F00301C7
:100760002D4A91601146896841F00301916000BFF4
:100770002949896801F00C010C29F9D126498968B9
:1007800021F0F001244A91601146896821F4E0616A
:1007900091601146896821F46051916011460968A1
:1007A00021F08061116000BF1B49096801F0806180
:1007B000B1F1806FF8D01849096921F4FE41164A59
:1007C00011611146096941F4C0511161114609696D
:1007D00041F4003111611146096941F48031116120
:1007E0001146096841F08061116000BF0A4909683B
:1007F00001F080610029F9D007498831096821F4A6
:100800004001054AC2F888101146096E41F40011F2
:10081000116670470020024000100240FFF73CFFC5
:10082000FFF7D6FEFFF7E4FD4FF4DC70FFF76EFD37
:1008300000BF002000E0401C01498842F9D2FAE7DD
:10084000809698002DE9C04130B4DFF8A0C23CEAA0
:10085000111418BF3CEA131400F0EC8081EA030580
:100860001CEA111444EAD57418BF1CEA131500F0F1
:10087000C780A4EB05044FF0004545EAC12145EAD5
:10088000C32341EA505143EA525304F17F74994221
:1008900004F500344FEAC0204FEAC22208BF90425C
:1008A00000F09C804FEA13650FF24016765D4FEA28
:1008B000134506FB05F7C7F1807706FB07F74FEAFC
:1008C000D737A7FB03687642C8F58038A7FB06CE6A
:1008D00038BFA8F1010807FB08E64FF0000EA6FBA1
:1008E000028CE6FB03CEDCF1000CCEF1004E38BFEB
:1008F000AEF1010EA6FB0C584FF000074FF00005BB
:10090000E6FB0E87A1FB08C6A0FB07CE16EB0E0682
:1009100045F10005E1FB076515F1E04E7EBFA4F54A
:1009200080345FEA46066D4116F1800745F1000507
:100930004FEA17274FEA066647EA0567A6F1DE4643
:10094000B6F1805F4FEA15251FD9384624F0010C17
:1009500005EBC471BCF1FE6F01EB0C1102D8F0BCC9
:10096000BDE8008124425CBF01F5801E9EEAC47F81
:1009700002D4F0BCBDE80081244238D4F0BCA1F11F
:10098000C041BDE8004100F0EDB94FEAD22242EA91
:1009900043524FEAD323A7FB02864FEAD02040EA16
:1009A000415007FB03661EEA0E0F4FEAD12105FBFB
:1009B000026658BFA6EB0056B6EB00564FEA520E41
:1009C0004EEAC37E18EB0E0E56EB530EBDD518EB58
:1009D00002085E417F1C55F10005B6E74FF4801513
:1009E0004FF000074FF000064FF00008ADE7F0BCF5
:1009F0004FF0000001F1C04101F00041BDE800816D
:100A000011EA0C1F0CEA131500D00CE013EA0C1FBE
:100A100000F025804FF00000F0BC81EA030101F0F6
:100A20000041BDE80081F0BCBDE8004181EA03015E
:100A300000F098B9F0BCBDE8004170B500F044F991
:100A4000097EFC3E00F007B881EA03014FF0000088
:100A500001F00041704781EA030100F083B9F0BC66
:100A6000BDE800414FF0000021497047FFFDFBF950
:100A7000F7F5F4F2F0EEEDEBE9E8E6E4E3E1E0DED1
:100A8000DDDBDAD8D7D5D4D3D1D0CFCDCCCBCAC843
:100A9000C7C6C5C4C2C1C0BFBEBDBCBBBAB9B8B76A
:100AA000B6B5B4B3B2B1B0AFAEADACABAAA9A8A85D
:100AB000A7A6A5A4A3A3A2A1A09F9F9E9D9C9C9B2B
:100AC0009A999998979796959594939392919190D6
:100AD0008F8F8E8E8D8C8C8B8B8A89898888878767
:100AE0008685858484838382828181800000FF07DC
:100AF0000000F87F4FEA1153A3F58063D3F11E0382
:100B0000A8BFD3F1200C08DB4FF0004242EAC1221B
:100B100052EA505232FA03F0704709420BD4102BBC
:100B2000C4BF0020704703F5787CBCF1FF3F05D0BF
:100B30004FF0FF3070474FF00000704770B500F085
:100B4000C3F800BF4992248000207047F0E7B0FA54
:100B500080F310FA03F10AD0C3F11D0303F580639B
:100B60004FEA41504FEA035202EBD12170474FF058
:100B700000007047DFF848C170B51CEA111E1EBFA7
:100B80001CEA13159EEA0C0F95EA0C0F00F06F801B
:100B900081EA030423EA4C134EEAD47E21EA4C1185
:100BA00041F4801143F48013AE44A1FB024CA0FB3E
:100BB0000365AEF17F7E361955EB0C05A1FB034CA6
:100BC0004CF10003A0FB021C16EB0C06654153F12F
:100BD0000003094218BF46F0010613F4007F0BD151
:100BE0004FEA03314FEA0530340341EA155140EA38
:100BF00016506FF003020AE04FEAC3214FEAC52006
:100C0000F40241EA555140EA56506FF0020202EBFD
:100C10002E4201EB025585EACE710AD05FEA440C00
:100C200018BF24F0004450F1000041F1000120EA17
:100C3000D47040F2FE7C624500D270BDA84214BF61
:100C40004FF080444FF04044002E08BF0024BEF116
:100C5000806FA8BFA1F1C041BDE8704080F28280E2
:100C60004FF0000001F1C04101F0004170479EEAE1
:100C70000C0F0CEA131518BF95EA0C0F06D04FF0B5
:100C8000000081EA030E0EF0004170BD00F01CF878
:100C90008900013E00F007B800F009B84FEA430CA4
:100CA0005FEA5C5C08D081EA030100F05BB84FEAC0
:100CB000410C5FEA5C5CF6D14FF0000001497047DF
:100CC0000000FF070000F87F0EF1020E2EF0030E69
:100CD0005EF8046B364205D4012A43EB030515F593
:100CE000001F12D8012841EB010C1CF5001F0CD885
:100CF0000ED14FEAD17C15F5001F0CEB4C0C0CF11A
:100D0000020C08BF4CEBD37C04E04FF0080C01E070
:100D10004FEAD37C0CEB4C0526FA05F606F00706E5
:100D2000B6F1040C06D20EEB860CBDE870404CF018
:100D3000010C6047DFE80CF0090B02024FF00041A4
:100D40004FF00000A1F5002170BD194610460128A2
:100D500051EB010418BFD4F5001484BF002001F04A
:100D6000004170BD0808A0F500114FEA310170473D
:100D70004FF04070E1EE100A704700008C0D000843
:0C0D80000000002060060000C401000814
:040000050800018965
:00000001FF
