:020000040800F2
:10000000C8060020290200086502000867020008EF
:10001000690200086B0200086D0200080000000081
:100020000000000000000000000000006F02000857
:100030007102000800000000730200087502000849
:1000400077020008770200087702000877020008AC
:10005000770200087702000877020008770200089C
:10006000770200087702000877020008770200088C
:10007000770200087702000877020008770200087C
:10008000770200087702000877020008770200086C
:10009000770200087702000877020008770200085C
:1000A000770200087702000877020008770200084C
:1000B000770200087702000877020008770200083C
:1000C000770200087702000877020008770200082C
:1000D000770200087702000877020008770200081C
:1000E000770200087702000877020008770200080C
:1000F00077020008770200087702000877020008FC
:1001000077020008770200087702000877020008EB
:1001100077020008770200087702000877020008DB
:1001200077020008770200087702000877020008CB
:1001300077020008770200087702000877020008BB
:1001400077020008770200087702000877020008AB
:10015000770200087702000877020008770200089B
:10016000770200087702000877020008770200088B
:1001700077020008770200087702000800000000FC
:10018000770200087702000800F002F800F03CF85F
:100190000AA090E8000C82448344AAF10107DA45E2
:1001A00001D100F031F8AFF2090EBAE80F0013F0F8
:1001B000010F18BFFB1A43F001031847080F000096
:1001C000280F0000103A24BF78C878C1FAD8520727
:1001D00024BF30C830C144BF04680C6070470000C1
:1001E0000023002400250026103A28BF78C1FBD840
:1001F000520728BF30C148BF0B6070471FB500F0E1
:100200005BFF1FBD10B510BD00F053F81146FFF79E
:10021000F5FF00F093FC00F071F803B4FFF7F2FF74
:1002200003BC00F079F8000016481749174B9942B3
:100230003CBF50F8042B41F8042BF8D314494FF07D
:1002400000028B4238BF43F8042BFAD3DFF8440096
:10025000016841F470010160BFF34F8FBFF36F8FEE
:100260000D480047FEE7FEE7FEE7FEE7FEE7FEE794
:10027000FEE7FEE7FEE7FEE708480949094A0A4BA0
:1002800070470000E4100008000000206400002017
:10029000C806002088ED00E089010008C8000020A1
:1002A000C8060020C8020020C8020020704770471E
:1002B0007047754600F02CF8AE4605006946534677
:1002C00020F00700854618B020B5FFF7D5FFBDE840
:1002D00020404FF000064FF000074FF000084FF0AD
:1002E000000B21F00701AC46ACE8C009ACE8C0093E
:1002F000ACE8C009ACE8C0098D46704710B50446AB
:10030000AFF300802046BDE81040FFF786BF000035
:10031000004870476400002001491820ABBEFEE78A
:10032000260002007047000070B52DED068B0446D4
:10033000204600F0B0FD41EC1A0B53EC1A2B9FED58
:10034000180B51EC100B00F021FC41EC190B9FED48
:10035000160B53EC102B00F0B1FD41EC180B00F024
:100360006DFD054605EB85000121C1EB40061048F7
:10037000066001460968481C00F08DFD41EC190B30
:100380009FED0C0B53EC102B00F098FD41EC180B7B
:1003900000F054FD064908310860BDEC068B70BDC5
:1003A000000000000000F03F0000000000408F400F
:1003B0002C080040000000000000E03F00214FF04A
:1003C000E0221161104941435161002191611146C0
:1003D000096941F0040111611146096921F0020126
:1003E00011611146096941F00101116100BF4FF02F
:1003F000E021096901F480310029F8D000214FF093
:10040000E02211617047000000350C0030B585B066
:100410002D4840692D490A780F21914088432A4987
:100420004861002047E028494969284B13F82040DB
:100430000123A3401943244B5961002200210EE0FF
:100440004FF090431B69224C14F821500124AC401A
:1004500023401BB91F4B1B7843435A1C491C1D4B9F
:100460001B789942ECDB4FF090410969C1F34001E0
:1004700004914FF090410969C1F3800103914FF05D
:1004800090410969C1F3C00102914FF0904109699F
:10049000C1F3401101910C494969C1F30331009145
:1004A00009494969094B13F820400123A3409943A6
:1004B000054B5961401C074909788842B3DB4FF06E
:1004C000FF3005B030BD000000100048440000209F
:1004D00054000020400000200348406920F4807050
:1004E0000149486170470000001000480348406916
:1004F00040F48070014948617047000000100048D6
:10050000F6EE000AB0EE600A3148C06C40F002001E
:100510002F49C8642F48006820F4405040F4005030
:100520002C4908602B482030006820F0706040F0B3
:10053000007028492031086026480C30006820F4FB
:10054000405024490C3108602148806D40F004007F
:100550001F4988652048006820F010001E49086087
:100560001E481D49283108600011091D08601A48FD
:10057000183000681A4908401749183108600020EF
:1005800015493431086014484430006840F4004094
:1005900011494431086010481830006840F060008C
:1005A0000D49183108600C482030006820F0020026
:1005B0000949203108600846006840F001000860E1
:1005C0000548006840F001000349086070470000DA
:1005D0000010024000040048000800407F3801007D
:1005E0008FFFFEFF10B55048C06C40F011004E491F
:1005F000C864002092E04D4909684D4A12F8202055
:10060000530003229A409143494A12F82020530094
:1006100001229A40464B13F820305C000323A3408C
:100620001A401143414A116011464968404A12F884
:10063000203001229A4091433D4A12F82030012295
:100640009A4012401143394A516011468968384A2C
:1006500012F82020530003229A409143344A12F8A2
:100660002020530000229A40314B13F820305C00C8
:100670000323A3401A4011432C4A91601146C968D4
:100680002B4A12F82020530003229A409143284A13
:1006900012F82020530001229A40254B13F82030F5
:1006A0005C000323A3401A401143204AD1604FF05D
:1006B000904109681F4A12F82020530003229A40F3
:1006C00091431C4A12F82020530000229A40194BF3
:1006D00013F820305C000323A3401A4011434FF06D
:1006E000904211601146C968124A12F82020530046
:1006F00003229A4091430F4A12F82020530001220E
:100700009A400C4B13F820305C000323A3401A409E
:1007100011434FF09042D160411CC8B2064909789C
:100720008842FFF668AF10BD00100240001000487C
:100730004400002054000020400000201948C06CF4
:1007400040F010001749C8640A2028E016490968DB
:10075000430003229A409143134A116011460968ED
:10076000430001229A4011430F4A116011468968E3
:10077000430003229A4091430B4A916011468968D5
:10078000430003229A401143074A91601146C96809
:10079000430003229A409143034AD160401C102831
:1007A000D4DB7047001002400010004800B5012063
:1007B00000F002F800BD000000B50346174840698C
:1007C00020F40060154948610846406920F48060C3
:1007D00048610846406940F40060486119090F48C3
:1007E000406961F30F300D4948610846406920F4C3
:1007F000006048610846406940F40060486108466E
:10080000406963F30F3048610846406920F4006096
:1008100048610120FFF7D2FD00BD00000010004834
:1008200000B5FFF78BFF2F48406940F400602D4969
:1008300048610846406920F4704040F440504861E7
:100840000846406920F4006048610520FFF7B6FDC6
:100850002448406940F400602249486108464069E4
:1008600020F4704040F4405048610846406920F44C
:10087000006048610120FFF7A1FD1A48406940F47B
:100880000060184948610846406920F4704040F40F
:10089000405048610846406920F4006048610846BD
:1008A000406940F4006048610846406920F47040A7
:1008B00040F4005048610846406920F400604861F7
:1008C0000220FFF77BFD2020FFF776FF0820FFF7CF
:1008D00073FFFFF76BFF0620FFF76EFF0C20FFF79B
:1008E0006BFF00BD001000482348C06C40F01200B0
:1008F0002149C8646FF0300020490860084600684C
:1009000040F0100008601D480830006820F03000FA
:100910001A49083108600846006840F03000086055
:10092000081F006820F00400091F086013480C30FD
:10093000006820F0300011490C3108606FF440303D
:100940000F4908600846006840F480300860084697
:10095000806820F4403088600846806840F4403069
:1009600088600846406820F4807048600846C06887
:1009700020F44030C8607047001002400004004876
:10098000001000480348006820F004000149086096
:1009900070470000140400480348006840F0040059
:1009A0000149086070470000140400480020014914
:1009B00008607047340800405E49096821F007016B
:1009C0005C4A11601146096841F0020111605A4900
:1009D000096841F48071584A116000BF564909689E
:1009E00001F480610029F9D010205349496821F0B1
:1009F000F851514A51601146496841EA006151601D
:100A00001146096821F08071116000BF4A490968E8
:100A100001F00071B1F1007FF8D04749C96821F0B9
:100A20000301454AD1601146C96841F00201D16015
:100A30001146C96821F4FE4141F4A051D16011462C
:100A4000C96821F0700141F01001D1601146C968F8
:100A500021F0C061D1601146C96841F08071D16058
:100A60001146096841F08071116000BF3249096880
:100A700001F000710029F9D02F49896821F00301A4
:100A80002D4A91601146896841F00301916000BFD1
:100A90002949896801F00C010C29F9D12649896896
:100AA00021F0F001244A91601146896821F4E06147
:100AB00091601146896821F460519160114609687E
:100AC00021F08061116000BF1B49096801F080615D
:100AD000B1F1806FF8D01849096921F4FE41164A36
:100AE00011611146096941F4C0511161114609694A
:100AF00041F4003111611146096941F480311161FD
:100B00001146096841F08061116000BF0A49096817
:100B100001F080610029F9D007498831096821F482
:100B20004001054AC2F888101146096E41F40011CF
:100B3000116670470020024000100240FFF73CFFA2
:100B4000FFF7D2FEFFF76CFEFFF74CFDFFF7D8FC76
:100B50004FF48370FFF7E8FB00BFFFF757FC044634
:100B6000601C30B9FFF722FFFFF7C0FCFFF70AFF58
:100B700008E0FFF7B1FCFFF70FFF034951F824002D
:100B8000FFF7D2FBE9E70000000000202DE9C0419B
:100B900030B4DFF8A0C23CEA111418BF3CEA1314C9
:100BA00000F0EC8081EA03051CEA111444EAD574D4
:100BB00018BF1CEA131500F0C780A4EB05044FF022
:100BC000004545EAC12145EAC32341EA505143EAC1
:100BD000525304F17F74994204F500344FEAC02067
:100BE0004FEAC22208BF904200F09C804FEA136592
:100BF0000FF24016765D4FEA134506FB05F7C7F185
:100C0000807706FB07F74FEAD737A7FB03687642E2
:100C1000C8F58038A7FB06CE38BFA8F1010807FB4E
:100C200008E64FF0000EA6FB028CE6FB03CEDCF1DB
:100C3000000CCEF1004E38BFAEF1010EA6FB0C58F1
:100C40004FF000074FF00005E6FB0E87A1FB08C63A
:100C5000A0FB07CE16EB0E0645F10005E1FB07658C
:100C600015F1E04E7EBFA4F580345FEA46066D4183
:100C700016F1800745F100054FEA17274FEA06668F
:100C800047EA0567A6F1DE46B6F1805F4FEA152513
:100C90001FD9384624F0010C05EBC471BCF1FE6F7E
:100CA00001EB0C1102D8F0BCBDE8008124425CBF0E
:100CB00001F5801E9EEAC47F02D4F0BCBDE800812D
:100CC000244238D4F0BCA1F1C041BDE8004100F09D
:100CD000EDB94FEAD22242EA43524FEAD323A7FBAF
:100CE00002864FEAD02040EA415007FB03661EEA25
:100CF0000E0F4FEAD12105FB026658BFA6EB005646
:100D0000B6EB00564FEA520E4EEAC37E18EB0E0EBB
:100D100056EB530EBDD518EB02085E417F1C55F112
:100D20000005B6E74FF480154FF000074FF00006BE
:100D30004FF00008ADE7F0BC4FF0000001F1C041FA
:100D400001F00041BDE8008111EA0C1F0CEA131507
:100D500000D00CE013EA0C1F00F025804FF00000DB
:100D6000F0BC81EA030101F00041BDE80081F0BC64
:100D7000BDE8004181EA030100F098B9F0BCBDE88C
:100D8000004170B500F044F9097EFC3E00F007B860
:100D900081EA03014FF0000001F00041704781EA51
:100DA000030100F083B9F0BCBDE800414FF0000042
:100DB00021497047FFFDFBF9F7F5F4F2F0EEEDEB9A
:100DC000E9E8E6E4E3E1E0DEDDDBDAD8D7D5D4D349
:100DD000D1D0CFCDCCCBCAC8C7C6C5C4C2C1C0BF95
:100DE000BEBDBCBBBAB9B8B7B6B5B4B3B2B1B0AF9B
:100DF000AEADACABAAA9A8A8A7A6A5A4A3A3A2A17F
:100E0000A09F9F9E9D9C9C9B9A9999989797969539
:100E100095949393929191908F8F8E8E8D8C8C8BD5
:100E20008B8A89898888878786858584848383825D
:100E3000828181800000FF070000F87F4FEA115394
:100E4000A3F58063D3F11E03A8BFD3F1200C08DB08
:100E50004FF0004242EAC12252EA505232FA03F005
:100E6000704709420BD4102BC4BF0020704703F514
:100E7000787CBCF1FF3F05D04FF0FF3070474FF05A
:100E80000000704770B500F0C3F800BF499224809D
:100E900000207047F0E7B0FA80F310FA03F10AD0AF
:100EA000C3F11D0303F580634FEA41504FEA03523B
:100EB00002EBD12170474FF000007047DFF848C1C6
:100EC00070B51CEA111E1EBF1CEA13159EEA0C0F1A
:100ED00095EA0C0F00F06F8081EA030423EA4C13BB
:100EE0004EEAD47E21EA4C1141F4801143F4801380
:100EF000AE44A1FB024CA0FB0365AEF17F7E361928
:100F000055EB0C05A1FB034C4CF10003A0FB021CAC
:100F100016EB0C06654153F10003094218BF46F079
:100F2000010613F4007F0BD14FEA03314FEA05307D
:100F3000340341EA155140EA16506FF003020AE00B
:100F40004FEAC3214FEAC520F40241EA555140EA75
:100F500056506FF0020202EB2E4201EB025585EA79
:100F6000CE710AD05FEA440C18BF24F0004450F15F
:100F7000000041F1000120EAD47040F2FE7C62459D
:100F800000D270BDA84214BF4FF080444FF04044DF
:100F9000002E08BF0024BEF1806FA8BFA1F1C041A0
:100FA000BDE8704080F282804FF0000001F1C04146
:100FB00001F0004170479EEA0C0F0CEA131518BFB0
:100FC00095EA0C0F06D04FF0000081EA030E0EF0F8
:100FD000004170BD00F01CF88900013E00F007B828
:100FE00000F009B84FEA430C5FEA5C5C08D081EA84
:100FF000030100F05BB84FEA410C5FEA5C5CF6D19C
:101000004FF00000014970470000FF070000F87F23
:101010000EF1020E2EF0030E5EF8046B364205D47C
:10102000012A43EB030515F5001F12D8012841EBF7
:10103000010C1CF5001F0CD80ED14FEAD17C15F520
:10104000001F0CEB4C0C0CF1020C08BF4CEBD37CDA
:1010500004E04FF0080C01E04FEAD37C0CEB4C05A8
:1010600026FA05F606F00706B6F1040C06D20EEBDA
:10107000860CBDE870404CF0010C6047DFE80CF0D6
:10108000090B02024FF000414FF00000A1F50021D2
:1010900070BD19461046012851EB010418BFD4F564
:1010A000001484BF002001F0004170BD0808A0F5C5
:1010B00000114FEA310170474FF04070E1EE100A25
:1010C00070470000E41000080000002064000000E9
:1010D000C4010008481100086400002064060000F4
:1010E000E00100088300000093000000A50000005C
:1010F000AF000000C4000000DC000000F7000000AA
:1011000006010000260100004A0100005D01000008
:1011100088010000B8010000EE0100000B02000091
:101120004B020000040000000C0000000D00000055
:101130000E0000000F00000001000000020000008F
:0811400003000000050000009F
:040000050800018965
:00000001FF
